:100000000C9434000C9451000C9451000C94510049
:100010000C9451000C9451000C9451000C9451001C
:100020000C9451000C9451000C9451000C9451000C
:100030000C9451000C9451000C9451000C945100FC
:100040000C9451000C9451000C9451000C945100EC
:100050000C9451000C9451000C9451000C945100DC
:100060000C9451000C94510011241FBECFEFD8E026
:10007000DEBFCDBF11E0A0E0B1E0EAEFF6E002C0E4
:1000800005900D92A233B107D9F721E0A2E3B1E0C8
:1000900001C01D92AC33B207E1F70E948E010C94AF
:1000A0007B030C9400009827892798270895FC016A
:1000B000DB0180E19DEA9183808380E090E593837A
:1000C000828380E09DE095838483178216823C9131
:1000D00011962C91119712969C91129713968C91D0
:1000E00043E04087318722879387848708956F9202
:1000F0007F928F929F92AF92BF92DF92EF92FF9288
:100100000F931F93CF93DF93CDB7DEB761970FB6F1
:10011000F894DEBF0FBECDBF8C014B0185E4F80122
:100120008083118280E091E293838283158214821E
:1001300080E490E097838683808781E181871386BE
:10014000128684E191E00E94FE01998B888B82E205
:1001500091E00E94FE019F878E87D12CAE01405F07
:100160005F4F60E371E0888999890E941F023C011A
:10017000892B11F5B401CE0101960E9457008DE044
:10018000FE013196D801549601900D928A95E1F7BF
:1001900061960FB6F894DEBF0FBECDBFDF91CF9151
:1001A0001F910F91FF90EF90DF90BF90AF909F90C5
:1001B0008F907F906F900895AE01425F5F4F60E334
:1001C00071E08E859F850E941F025C01892B91F250
:1001D000ED2CF12CC3010E94E001E00EF11EF701AD
:1001E0008487C5010E94E001F701808BD394B6CFCC
:1001F000EF92FF920F931F93CF93DF931F92CDB790
:10020000DEB7182F80EC99830E946501E12E998159
:10021000F92E87010F5D1F4FF70181917F01803C0F
:1002200029F48BED0E9465018CED05C08B3D19F41E
:100230000E9465018DED0E946501E016F10661F7EF
:1002400080EC0F90DF91CF911F910F91FF90EF9075
:100250000C946501EAE7F0E0908197609083ACE749
:10026000B0E09C9190669C939C91907F892B8C939D
:10027000808180688083089580917A008064809373
:100280007A0080917A0086FDFCCF8091790090E021
:1002900008959B01AC0184E0220F331F441F551FBA
:1002A0008A95D1F760E074E284EF90E00E94BE018D
:1002B000215031093093C5002093C40088E1809318
:1002C000C10086E08093C20008959091C00095FF20
:1002D000FCCF8093C6000895CF93C82F8A3019F4BD
:1002E0008DE00E9465018C2F0E94650180E090E006
:1002F000CF9108958091C00087FFFCCF8091C60008
:10030000089560E875E280E090E00E94490180E095
:1003100091E090933501809334010895CF93DF935A
:10032000CDB7DEB7A5970FB6F894DEBF0FBECDBF31
:100330000E94810160E875E280E090E00E9449013E
:100340008AE18AA38DE08BA38CE48CA38BE48DA33C
:10035000BE016E5D7F4FCE0101960E947700CE01F7
:1003600001960E94F80080E090E0A5960FB6F89400
:10037000DEBF0FBECDBFDF91CF910895A1E21A2E4F
:10038000AA1BBB1BFD010DC0AA1FBB1FEE1FFF1F39
:10039000A217B307E407F50720F0A21BB30BE40B89
:1003A000F50B661F771F881F991F1A9469F76095D0
:1003B0007095809590959B01AC01BD01CF0108958A
:1003C000FC0188279927E89421912032E9F329300C
:1003D00010F02E30C8F32B3241F02D3239F46894EE
:1003E00004C00E944602820F911D219120532A30A1
:1003F000C0F31EF4909581959F4F08950F931F931E
:10040000CF93DF938C01FC0101900020E9F7CF012D
:10041000801B910B0E944E02EC01009719F0B8016D
:100420000E941802CE01DF91CF911F910F91089584
:10043000FB01DC0101900D920020E1F70895FA0123
:10044000A191B081009719F41097E1F0CD01DC0182
:10045000CD010D90002011F4C00113C0FB012191CA
:10046000222319F02015D9F7F3CFFB012191201594
:1004700019F41E92119606C02223C1F70D90002098
:10048000A1F7D001FA01A193B08308957AE0979F74
:10049000902D879F802D910D11240895CF93DF9388
:1004A0008230910510F482E090E0E0913A01F09101
:1004B0003B0120E030E0C0E0D0E0309711F1408116
:1004C000518148175907C0F04817590761F48281D4
:1004D0009381209719F09B838A832BC090933B01D3
:1004E00080933A0126C02115310519F042175307B0
:1004F00018F49A01BE01DF01EF010280F381E02DC3
:10050000DCCF2115310509F1281B390B24303105C9
:1005100090F412968D919C9113976115710521F0BD
:10052000FB019383828304C090933B0180933A0143
:10053000FD01329644C0FD01E20FF31F81939193B8
:10054000225031092D933C933AC0209138013091CB
:100550003901232B41F42091100130911101309386
:1005600039012093380120910E0130910F0121159E
:10057000310541F42DB73EB740911201509113015E
:10058000241B350BE0913801F0913901E217F30794
:10059000A0F42E1B3F0B2817390778F0AC014E5FF3
:1005A0005F4F2417350748F04E0F5F1F50933901F6
:1005B000409338018193919302C0E0E0F0E0CF01D5
:1005C000DF91CF9108950F931F93CF93DF930097FF
:1005D00009F48CC0FC0132971382128200913A0117
:1005E00010913B010115110581F420813181820FA9
:1005F000931F20913801309139012817390779F577
:10060000F0933901E093380171C0D80140E050E027
:10061000AE17BF0750F412962D913C911397AD0180
:100620002115310509F1D901F3CF9D01DA01338399
:10063000228360817181860F971F8217930769F467
:10064000EC0128813981260F371F2E5F3F4F318300
:1006500020838A819B8193838283452B29F4F093A5
:100660003B01E0933A0142C01396FC93EE9312973C
:10067000ED01499159919E01240F351FE217F307AF
:1006800071F480819181840F951F029611969C933D
:100690008E938281938113969C938E931297E0E0C0
:1006A000F0E0D80112968D919C911397009719F064
:1006B000F8018C01F6CF8D919C9198012E5F3F4FF0
:1006C000820F931F20913801309139012817390783
:1006D00069F4309729F410923B0110923A0102C05C
:1006E000138212821093390100933801DF91CF9168
:0A06F0001F910F910895F894FFCFB9
:1006FA0000000002000000006C0100000000000081
:10070A003C0120003137322E32362E37392E323024
:10071A0035003137322E32362E37392E3230340008
:02072A002E009F
:00000001FF
