:100000000C9434000C9451000C9451000C94510049
:100010000C9451000C9451000C9451000C9451001C
:100020000C9451000C9451000C9451000C9451000C
:100030000C9451000C9451000C9451000C945100FC
:100040000C9451000C9451000C9451000C945100EC
:100050000C9451000C9451000C9451000C945100DC
:100060000C9451000C94510011241FBECFEFD8E026
:10007000DEBFCDBF11E0A0E0B1E0E2E8F6E002C0F3
:1000800005900D92A233B107D9F721E0A2E3B1E0C8
:1000900001C01D92AC33B207E1F70E945E010C94DF
:1000A0003F030C940000FC01DB018DEA90E1918399
:1000B000808380E590E0938382838DE090E0958358
:1000C000848316823C9111962C91119712969C91E3
:1000D000129713968C9143E047833087218792874C
:1000E000838708956F927F928F929F92AF92BF9273
:1000F000DF92EF92FF920F931F93CF93DF93CDB7D1
:10010000DEB760970FB6F894DEBF0FBECDBF8C018F
:100110004B0185E4F8018083118281E290E09383B2
:1001200082831582148280E090E49783868380E442
:10013000808781E181871386128684E191E00E94A5
:10014000C201988B8F8782E291E00E94C2019E8754
:100150008D87D12CAE01415F5F4F60E371E08F85E9
:1001600098890E94E3013C01892B11F5B401CE016D
:1001700001960E9453008CE0FE013196D8015496FE
:1001800001900D928A95E1F760960FB6F894DEBF64
:100190000FBECDBFDF91CF911F910F91FF90EF90D8
:1001A000DF90BF90AF909F908F907F906F90089559
:1001B000AE01435F5F4F60E371E08D859E850E94D5
:1001C000E3015C01892B91F2ED2CF12CC3010E941B
:1001D000A401E00EF11EF7018487C5010E94A4016D
:1001E000F701808BD394B6CFEAE7F0E09081976077
:1001F0009083ACE7B0E09C9190669C939C91907F3B
:10020000892B8C93808180688083089580917A0007
:10021000806480937A0080917A0086FDFCCF809183
:10022000790090E008959B01AC0184E0220F331F18
:10023000441F551F8A95D1F760E074E284EF90E087
:100240000E948201215031093093C5002093C400DF
:1002500088E18093C10086E08093C2000895909168
:10026000C00095FFFCCF8093C6000895CF93C82FA0
:100270008A3019F48DE00E942F018C2F0E942F01EB
:1002800080E090E0CF9108958091C00087FFFCCF7F
:100290008091C600089560E875E280E090E00E94D9
:1002A000130180E091E0909335018093340108952B
:1002B0008CED0E942F018CED0C942F01CF93DF93D6
:1002C000CDB7DEB7A4970FB6F894DEBF0FBECDBF93
:1002D0008AE189A38DE08AA38DEB8BA38EEF8CA39B
:1002E000BE016F5D7F4FCE0101960E94720080E0DB
:1002F00090E0A4960FB6F894DEBF0FBECDBFDF919D
:10030000CF910895A1E21A2EAA1BBB1BFD010DC0BF
:10031000AA1FBB1FEE1FFF1FA217B307E407F507B5
:1003200020F0A21BB30BE40BF50B661F771F881F91
:10033000991F1A9469F760957095809590959B0127
:10034000AC01BD01CF010895FC0188279927E894ED
:1003500021912032E9F3293010F02E30C8F32B32EE
:1003600041F02D3239F4689404C00E940A02820FD1
:10037000911D219120532A30C0F31EF49095819550
:100380009F4F08950F931F93CF93DF938C01FC0130
:1003900001900020E9F7CF01801B910B0E9412020F
:1003A000EC01009719F0B8010E94DC01CE01DF9149
:1003B000CF911F910F910895FB01DC0101900D92E7
:1003C0000020E1F70895FA01A191B081009719F496
:1003D0001097E1F0CD01DC01CD010D90002011F46A
:1003E000C00113C0FB012191222319F02015D9F778
:1003F000F3CFFB012191201519F41E92119606C02E
:100400002223C1F70D900020A1F7D001FA01A1939A
:10041000B08308957AE0979F902D879F802D910D4E
:1004200011240895CF93DF938230910510F482E078
:1004300090E0E0913A01F0913B0120E030E0C0E033
:10044000D0E0309711F14081518148175907C0F031
:100450004817590761F482819381209719F09B8393
:100460008A832BC090933B0180933A0126C02115CB
:10047000310519F04217530718F49A01BE01DF0144
:10048000EF010280F381E02DDCCF2115310509F168
:10049000281B390B2430310590F412968D919C91D4
:1004A00013976115710521F0FB019383828304C0CA
:1004B00090933B0180933A01FD01329644C0FD01C7
:1004C000E20FF31F81939193225031092D933C93B6
:1004D0003AC02091380130913901232B41F4209109
:1004E000100130911101309339012093380120918E
:1004F0000E0130910F012115310541F42DB73EB7A2
:100500004091120150911301241B350BE0913801E9
:10051000F0913901E217F307A0F42E1B3F0B2817C7
:10052000390778F0AC014E5F5F4F2417350748F06C
:100530004E0F5F1F5093390140933801819391937F
:1005400002C0E0E0F0E0CF01DF91CF9108950F937A
:100550001F93CF93DF93009709F48CC0FC0132976F
:100560001382128200913A0110913B01011511058D
:1005700081F420813181820F931F209138013091C5
:1005800039012817390779F5F0933901E0933801DB
:1005900071C0D80140E050E0AE17BF0750F412968A
:1005A0002D913C911397AD012115310509F1D90128
:1005B000F3CF9D01DA013383228360817181860F3D
:1005C000971F8217930769F4EC0128813981260F60
:1005D000371F2E5F3F4F318320838A819B81938316
:1005E0008283452B29F4F0933B01E0933A0142C00A
:1005F0001396FC93EE931297ED01499159919E0148
:10060000240F351FE217F30771F480819181840F65
:10061000951F029611969C938E93828193811396D7
:100620009C938E931297E0E0F0E0D80112968D91A2
:100630009C911397009719F0F8018C01F6CF8D91DA
:100640009C9198012E5F3F4F820F931F209138019C
:10065000309139012817390769F4309729F410923D
:100660003B0110923A0102C01382128210933901A9
:1006700000933801DF91CF911F910F910895F89465
:02068000FFCFAA
:10068200000000020000000036010000000000002F
:100692003C0120003137322E32362E37392E32309D
:1006A20035003137322E32362E37392E3230340081
:0206B2002E0018
:00000001FF
