:100000000C943A000C9457000C9457000C94570031
:100010000C9457000C9457000C9457000C94570004
:100020000C9457000C9457000C9457000C945700F4
:100030000C9457000C9457000C9457000C945700E4
:100040000C9457000C9457000C9457000C945700D4
:100050000C9457000C9457000C9457000C945700C4
:100060000C9457000C9457006364696E6F7073753D
:1000700078585B0011241FBECFEFD8E0DEBFCDBFA4
:1000800011E0A0E0B1E0EEE2FDE002C005900D92CB
:10009000A633B107D9F721E0A6E3B1E001C01D9274
:1000A000AC33B207E1F70E94D2020C9495060C948F
:1000B00000009827892798270895FC01DB018DEA25
:1000C00090E19183808380E590E0938382838DE04B
:1000D00090E095838483178216823C9111962C912F
:1000E000119712969C91129713968C9143E040873A
:1000F000318722879387848708950F931F93FC018C
:10010000008D118D20E030E08485958546855785EA
:1001100060E070E0480F591F611D711D4F5E5F4F19
:100120006F4F7F4F80899189480F591F611D711D45
:1001300082899389480F591F611D711D400F511FFE
:10014000621F731F400F511F621F731F848995899F
:10015000480F591F611D711D86899789480F591FC6
:10016000611D711D848D958D982789279827480FCB
:10017000591F611D711D868D978D98278927982796
:10018000480F591F611D711D80A190E0982F88278D
:10019000480F591F611D711DCB01009769F066273B
:1001A0007727480F591F611D711DDB01CA01882780
:1001B000907FBF70CD01F1CF538F428F1F910F9170
:1001C00008950F931F93DC01FC0190E040E050E0A4
:1001D000BA01953031F020813181420F531F611DEA
:1001E000711D32969F5F9A30A1F79B012115310551
:1001F00061F066277727420F531F611D711D8A0129
:100200009B010027107F3F70F1CF409550951B96C2
:100210005C934E931A971F910F9108956F927F925E
:100220008F929F92AF92BF92CF92DF92EF92FF9206
:100230000F931F93CF93DF93CDB7DEB7CD55D10981
:100240000FB6F894DEBF0FBECDBF8C014B0180E02E
:1002500095E4F8019183808381E290E09383828327
:100260001582148280E090E49783868381E190E494
:1002700091878087138612867E01F1E2EF0EF11CD2
:100280006EE071E0C7010E9422036CE171E0CE01D3
:1002900001963C010E9422036E0196E5C90ED11C15
:1002A000C60106969F938F9302979F938F93029711
:1002B0009F938F93DF92CF928AE2A82E81E0B82E8F
:1002C000BF92AF92FF92EF920E9429037E01EEE46B
:1002D000EE0EF11CC70106969F938F9302979F9392
:1002E0008F9302979F938F93FF92EF92BF92AF925B
:1002F0007F926F920E94290320E030E0F601308166
:1003000082819381822B932BF8019587848720E04B
:1003100030E0F601348186819781822B932BF8019E
:100320009787868720E030E0F701308182819381D2
:10033000822B932BF801918B808B20E030E0F7012A
:10034000348186819781822B932BF801938B828B4A
:10035000B401CE018F5B9F4F0E945D008DE0FE01D6
:10036000EF5BFF4FD801549601900D928A95E1F70B
:10037000C8010E94E100C8010E947D00F80180814F
:1003800091819827892798279183808382819381FF
:10039000982789279827938382838481958198273A
:1003A0008927982795838483868197819827892731
:1003B0009827978386838085918598278927982712
:1003C00091878087828593859827892798279387A7
:1003D000828784859585982789279827958784879C
:1003E0008685978598278927982797878687808984
:1003F0009189982789279827918B808B8289938967
:10040000982789279827938B828B848995899827A9
:1004100089279827958B848B8689978998278927A0
:100420009827978B868B808D918D98278927982781
:10043000918F808F828D938D982789279827938F0E
:10044000828F0FB6F894DEBF0FBECDBFC35ADF4F09
:100450000FB6F894DEBF0FBECDBFDF91CF911F91D5
:100460000F91FF90EF90DF90CF90BF90AF909F9053
:100470008F907F906F900895EF92FF920F931F934C
:10048000CF93DF931F92CDB7DEB7182F80EC9983FF
:100490000E94A902E12E9981F92E87010F5D1F4F5D
:1004A000F70181917F01803C29F48BED0E94A90224
:1004B0008CED05C08B3D19F40E94A9028DED0E94C0
:1004C000A902E016F10661F780EC0F90DF91CF9161
:1004D0001F910F91FF90EF900C94A902EAE7F0E0D2
:1004E000908197609083ACE7B0E09C9190669C937C
:1004F0009C91907F892B8C93808180688083089564
:1005000080917A00806480937A0080917A0086FDE1
:10051000FCCF8091790090E008959B01AC0184E0CC
:10052000220F331F441F551F8A95D1F760E074E2F4
:1005300084EF90E00E940003215031093093C50000
:100540002093C40088E18093C10086E08093C200BC
:1005500008959091C00095FFFCCF8093C600089548
:10056000CF93C82F8A3019F48DE00E94A9028C2FF6
:100570000E94A90280E090E0CF9108958091C00090
:1005800087FFFCCF8091C600089560E875E280E0A7
:1005900090E00E948D0280E091E090933901809379
:1005A00038010895CF93DF93CDB7DEB7A5970FB687
:1005B000F894DEBF0FBECDBF60E875E280E090E04A
:1005C0000E948D028AE18AA38DE08BA38CE48CA328
:1005D0008BE48DA3BE016E5D7F4FCE0101960E941C
:1005E0000E01CE0101960E943C0280E090E0A596AB
:1005F0000FB6F894DEBF0FBECDBFDF91CF91089547
:10060000A1E21A2EAA1BBB1BFD010DC0AA1FBB1F16
:10061000EE1FFF1FA217B307E407F50720F0A21B88
:10062000B30BE40BF50B661F771F881F991F1A94F5
:1006300069F760957095809590959B01AC01BD011F
:10064000CF010895FB01DC0101900D920020E1F73C
:100650000895AEE0B0E0EFE2F3E00C946E0685E0C2
:100660008C838B899C899A838983AE01495E5F4F15
:100670006D897E89CE0101960E94C2042E96E2E029
:100680000C948A0620FD09C0FC0123FD05C022FF51
:1006900002C07383628351834083089544FD10C078
:1006A00046FD10C0DB01FC01AA0FBB1FEE1FFF1FA0
:1006B0001094D1F76A0F7B1F8E1F9F1F31E003C07C
:1006C00033E001C034E0660F771F881F991F315057
:1006D000D1F7620F711D811D911D08950F931F9316
:1006E000CF93DF938C01C8010E940406EC0197FDB3
:1006F00008C00E94F005892BB1F7B801CE010E9415
:100700004206CE01DF91CF911F910F910895A1E094
:10071000B0E0EDE8F3E00C9464068C01C62E7A019B
:1007200029830E940406AC01552729814B325105CB
:1007300021F04D32510569F42068CA94C11002C0FD
:1007400080E076C0C80129830E940406298197FDB4
:10075000F7CF322F3D7FD32E322F307349F58033C0
:1007600039F5BB24BA94BC0C09F44EC0C8012983E6
:100770000E940406298197FD47C0382F3F7D3835F8
:1007800069F48D2D8264D82ECA94CA94CC20E1F1EC
:10079000C8010E94040697FF0BC036C026FF04C0A4
:1007A0002D2D2260D22E03C03D2D3261D32ECB2CB5
:1007B000812C912C540120ED280F283080F0D4FE9C
:1007C00004C0B8010E9442061CC02A3040F0D6FE88
:1007D000F8CF2F7D3FEE320F363098F727504D2D52
:1007E000C501B4010E944E034B015C018D2D826056
:1007F000D82ECA94CC2059F0C8010E94040697FF55
:10080000DACFD1FC04C09CCF812C912C5401D7FEAF
:1008100008C0B094A09490948094811C911CA11C59
:10082000B11C2D2DB501A401C7010E94420381E036
:100830002196ECE00C948006A1E2B0E0E2E2F4E064
:100840000C9462065C017A01CE0101966C0180E293
:10085000F60111928A95E9F7F501838040E050E0B6
:10086000912C712C70E0A1E0B0E0F90183FC85913E
:1008700083FE81918F01982F9F01811103C080E039
:1008800090E07CC08E3519F44115510549F1E72FF0
:10089000F0E0E417F5073CF48D3559F18D3219F489
:1008A000772001F103C0711001C0982E892F869521
:1008B000869586958601080F111D892F87703D0149
:1008C00001C0660C8A95EAF7F80180818629808349
:1008D000991559F0991510F49F5FE8CF9150E6CF24
:1008E00071E004C07724739401C0712C4F5F5F4F97
:1008F000BCCF772019F08E8180628E83711103C086
:100900009924939416C0F6019E012F5D3F4F80817C
:1009100080958193E217F307D1F7F2CFE114F10448
:1009200029F0F7018083C70101967C016150912C69
:10093000F9F0C50169A30E94040669A197FD16C0DC
:10094000282F269526952695F601E20FF11D208188
:1009500030E0AC014770552702C0359527954A9580
:10096000E2F720FDDBCFB5010E944206911087CF50
:10097000E114F10411F0F7011082C801A196EEE034
:100980000C947E064F925F927F928F929F92AF92CD
:10099000BF92CF92DF92EF92FF920F931F93CF936C
:1009A000DF931F92CDB7DEB76C012B015A01FC011A
:1009B00017821682712CF601F380F201F3FC859107
:1009C000F3FE8191382F2F01882309F4F3C090E0C2
:1009D00039830E94F0053981892B21F0C6010E94DC
:1009E0006E03E9CF353241F4F201F3FC3591F3FEA9
:1009F00031912F01353269F4C60139830E94040612
:100A0000398197FDD5C03817B1F2B6010E94420670
:100A1000D1C03A3239F4F3FC3591F3FE31912F0114
:100A200051E001C050E0420110E020ED230F2A30D8
:100A300090F45260612F70E080E090E040E25983D2
:100A40000E944E03162FF401F3FC3591F3FE319111
:100A50004F015981EACF052F232F240151FF03C0F5
:100A6000111102C0A7C01FEF383619F03C3659F0FB
:100A700011C0F401F3FC2591F3FE21912F012836DA
:100A800049F4052F08600460F201F3FC2591F3FEA0
:100A900021912F01222309F48DC0622F70E088E696
:100AA00090E029830E94F9052981892B09F482C0ED
:100AB00000FD07C0F501E080F180C50102965C01F0
:100AC00002C0E12CF12C2E3651F4F60146815781FB
:100AD00060E070E0202FC7010E9442036CCF2336F4
:100AE00091F401FF11E0C6010E94040697FD60C069
:100AF000E114F10429F0F7018083C70101967C011C
:100B0000115089F751C02B3559F49201A701612F7B
:100B1000C6010E941C042C01892B09F045C03FC06E
:100B2000C60129830E946E03298197FD41C02F369B
:100B300059F128F4243631F1293649F127C02337F9
:100B400069F02537F9F022C0E114F10429F0F7012A
:100B50008082C70101967C01115071F0C6010E948C
:100B600004064C0197FD08C00E94F005892B61F333
:100B7000B601C4010E944206E114F104A9F0F70194
:100B8000108212C0006203C0006101C00064202F07
:100B9000A701612FC6010E948703811105C0F601DC
:100BA0008381807329F406C000FD05CF739403CFC1
:100BB000772019F0872D90E002C08FEF9FEF0F9004
:100BC000DF91CF911F910F91FF90EF90DF90CF9029
:100BD000BF90AF909F908F907F905F904F900895BF
:100BE00091110C945B06803219F089508550C8F73A
:100BF0000895FC010590061621F00020D9F7C001E8
:100C000008953197CF010895CF93DF93EC012B81A5
:100C100020FF33C026FF0AC02F7B2B838E819F814C
:100C200001969F838E838A8190E029C022FF0FC0A6
:100C3000E881F9818081082E000C990B009719F446
:100C400020622B831AC03196F983E8830EC0EA85AF
:100C5000FB85099597FF09C02B81019611F080E271
:100C600001C080E1822B8B8308C02E813F812F5FE2
:100C70003F4F3F832E83992702C08FEF9FEFDF9175
:100C8000CF910895FB01238120FF12C026FD10C0E3
:100C90008F3F3FEF930761F082832F7D2064238392
:100CA000268137812150310937832683992708957A
:100CB0008FEF9FEF08959927882708952F923F92ED
:100CC0004F925F926F927F928F929F92AF92BF925C
:100CD000CF92DF92EF92FF920F931F93CF93DF9308
:100CE000CDB7DEB7CA1BDB0B0FB6F894DEBF0FBE65
:100CF000CDBF09942A88398848885F846E847D84B2
:100D00008C849B84AA84B984C884DF80EE80FD80B3
:100D10000C811B81AA81B981CE0FD11D0FB6F89429
:0E0D2000DEBF0FBECDBFED010895F894FFCFEA
:100D2E000000000200000000B00200000000313799
:100D3E00322E32362E37392E323035003137322EB2
:100D4E0032362E37392E3230340025642E25642E5D
:060D5E0025642E2564004F
:00000001FF
