:100000000C9434000C9451000C9451000C94510049
:100010000C9451000C9451000C9451000C9451001C
:100020000C9451000C9451000C9451000C9451000C
:100030000C9451000C9451000C9451000C945100FC
:100040000C9451000C9451000C9451000C945100EC
:100050000C9451000C9451000C9451000C945100DC
:100060000C9451000C94510011241FBECFEFD8E026
:10007000DEBFCDBF11E0A0E0B1E0E6E1F8E002C0F4
:1000800005900D92A233B107D9F721E0A2E3B1E0C8
:1000900001C01D92AC33B207E1F70E941C020C9420
:1000A00009040C9400009827892798270895FC01DB
:1000B000DB0180E19DEA9183808380E090E593837A
:1000C000828380E09DE095838483178216823C9131
:1000D00011962C91119712969C91129713968C91D0
:1000E00043E04087318722879387848708956F9202
:1000F0007F928F929F92BF92CF92DF92EF92FF9268
:100100000F931F93CF93DF93CDB7DEB769970FB6E9
:10011000F894DEBF0FBECDBF8C017B0180E095E47B
:10012000D80111969C938E9381E290E013969C9354
:100130008E93129715961C921E92149780E090E46D
:1001400017969C938E93169781E190E419969C9351
:100150008E9318971B961C921E921A9784E191E039
:100160000E948C02998F888F82E291E00E948C021B
:100170009F8B8E8BB12CAE01485E5F4F60E371E0C8
:10018000888D998D0E94AD023C01892B09F099C0A0
:100190002A8930E0322F22278B89282B8C8990E006
:1001A000982F88274D89FC01E42BAF018E8590E0C4
:1001B000982F88276F85FC01E62B888990E0982F7F
:1001C00088276989DC01A62BBD01D8018D919C91FE
:1001D000119798278927982711969C938E931296AA
:1001E0008D919C91139798278927982713969C9314
:1001F0008E93129714968D919C9115979827892725
:10020000982715969C938E93149716968D919C9192
:10021000179798278927982717969C938E93169758
:1002200018968D919C911997982789279827199648
:100230009C938E9318971A968D919C911B97982753
:10024000892798271B969C938E931A9732272327EA
:1002500032271D963C932E931C97942F852F1F9623
:100260009C938E931E979E2F8F2F51969C938E93C7
:100270005097962F872F53969C938E935297B70142
:10028000CE0101960E9457008DE0FE013196D80103
:10029000549601900D928A95E1F769960FB6F894FD
:1002A000DEBF0FBECDBFDF91CF911F910F91FF90A9
:1002B000EF90DF90CF90BF909F908F907F906F9046
:1002C0000895AE014A5E5F4F60E371E08E899F89B9
:1002D0000E94AD024C01892B09F45ACFCB2CD12CB2
:1002E000C3010E946E02E2E1F0E0EC0FFD1FEC0D95
:1002F000FD1D8083C4010E946E02EEE0F0E0EC0F71
:10030000FD1FEC0DFD1D8083B39435CFEF92FF925E
:100310000F931F93CF93DF931F92CDB7DEB7182FA4
:1003200080EC99830E94F301E12E9981F92E8701D7
:100330000F5D1F4FF70181917F01803C29F48BED08
:100340000E94F3018CED05C08B3D19F40E94F3016E
:100350008DED0E94F301E016F10661F780EC0F903D
:10036000DF91CF911F910F91FF90EF900C94F301CB
:10037000EAE7F0E0908197609083ACE7B0E09C9171
:1003800090669C939C91907F892B8C938081806850
:100390008083089580917A00806480937A008091B0
:1003A0007A0086FDFCCF8091790090E008959B0152
:1003B000AC0184E0220F331F441F551F8A95D1F7EB
:1003C00060E074E284EF90E00E944C022150310919
:1003D0003093C5002093C40088E18093C10086E07B
:1003E0008093C20008959091C00095FFFCCF809348
:1003F000C6000895CF93C82F8A3019F48DE00E946B
:10040000F3018C2F0E94F30180E090E0CF910895DA
:100410008091C00087FFFCCF8091C600089560E8FE
:1004200075E280E090E00E94D70180E091E0909337
:100430003501809334010895CF93DF93CDB7DEB7B4
:10044000A5970FB6F894DEBF0FBECDBF0E940F0276
:1004500060E875E280E090E00E94D7018AE18AA31B
:100460008DE08BA38CE48CA38BE48DA3BE016E5D29
:100470007F4FCE0101960E947700CE0101960E9427
:10048000860180E090E0A5960FB6F894DEBF0FBE1F
:10049000CDBFDF91CF910895A1E21A2EAA1BBB1BFD
:1004A000FD010DC0AA1FBB1FEE1FFF1FA217B30740
:1004B000E407F50720F0A21BB30BE40BF50B661F56
:1004C000771F881F991F1A9469F76095709580951A
:1004D00090959B01AC01BD01CF010895FC018827D7
:1004E0009927E89421912032E9F3293010F02E3039
:1004F000C8F32B3241F02D3239F4689404C00E94C5
:10050000D402820F911D219120532A30C0F31EF492
:10051000909581959F4F08950F931F93CF93DF93ED
:100520008C01FC0101900020E9F7CF01801B910BA9
:100530000E94DC02EC01009719F0B8010E94A602AB
:10054000CE01DF91CF911F910F910895FB01DC0146
:1005500001900D920020E1F70895FA01A191B08178
:10056000009719F41097E1F0CD01DC01CD010D9059
:10057000002011F4C00113C0FB012191222319F0C6
:100580002015D9F7F3CFFB012191201519F41E9204
:10059000119606C02223C1F70D900020A1F7D001CB
:1005A000FA01A193B08308957AE0979F902D879FD9
:1005B000802D910D11240895CF93DF938230910502
:1005C00010F482E090E0E0913A01F0913B0120E0EC
:1005D00030E0C0E0D0E0309711F140815181481700
:1005E0005907C0F04817590761F482819381209719
:1005F00019F09B838A832BC090933B0180933A012F
:1006000026C02115310519F04217530718F49A0135
:10061000BE01DF01EF010280F381E02DDCCF211567
:10062000310509F1281B390B2430310590F412965D
:100630008D919C9113976115710521F0FB019383B6
:10064000828304C090933B0180933A01FD0132966E
:1006500044C0FD01E20FF31F8193919322503109B1
:100660002D933C933AC02091380130913901232BCE
:1006700041F4209110013091110130933901209300
:10068000380120910E0130910F012115310541F4FF
:100690002DB73EB74091120150911301241B350B29
:1006A000E0913801F0913901E217F307A0F42E1B15
:1006B0003F0B2817390778F0AC014E5F5F4F2417C6
:1006C000350748F04E0F5F1F5093390140933801B2
:1006D0008193919302C0E0E0F0E0CF01DF91CF91F0
:1006E00008950F931F93CF93DF93009709F48CC065
:1006F000FC0132971382128200913A0110913B0162
:100700000115110581F420813181820F931F209101
:100710003801309139012817390779F5F0933901FB
:10072000E093380171C0D80140E050E0AE17BF0738
:1007300050F412962D913C911397AD01211531057E
:1007400009F1D901F3CF9D01DA013383228360815E
:100750007181860F971F8217930769F4EC01288136
:100760003981260F371F2E5F3F4F318320838A81C7
:100770009B8193838283452B29F4F0933B01E09383
:100780003A0142C01396FC93EE931297ED01499102
:1007900059919E01240F351FE217F30771F48081F0
:1007A0009181840F951F029611969C938E9382815E
:1007B000938113969C938E931297E0E0F0E0D8011A
:1007C00012968D919C911397009719F0F8018C0166
:1007D000F6CF8D919C9198012E5F3F4F820F931F12
:1007E00020913801309139012817390769F4309781
:1007F00029F410923B0110923A0102C01382128236
:100800001093390100933801DF91CF911F910F911F
:060810000895F894FFCFEB
:100816000000000200000000FA01000000000000D5
:100826003C0120003137322E32362E37392E323007
:1008360035003137322E32362E37392E32303400EB
:020846002E0082
:00000001FF
