:100000000C943A000C9457000C9457000C94570031
:100010000C9457000C9457000C9457000C94570004
:100020000C9457000C9457000C9457000C945700F4
:100030000C9457000C9457000C9457000C945700E4
:100040000C9457000C9457000C94E5020C94570044
:100050000C9457000C9457000C9457000C945700C4
:100060000C9457000C9457006364696E6F7073753D
:1000700078585B0011241FBECFEFD8E0DEBFCDBFA4
:1000800011E0A0E0B1E0E0E7FEE002C005900D92D3
:10009000A633B107D9F721E0A6E3B1E001C01D9274
:1000A000AC33B207E1F70E945B030C9436070C9463
:1000B00000009827892798270895FC01DB018DEA25
:1000C00090E19183808380EA9FE0938382838DE037
:1000D00090E095838483178216823C9111962C912F
:1000E000119712969C91129713968C914091000152
:1000F0004087318722879387848708950F931F93C2
:10010000FC01008D118D20E030E0848595854685C9
:10011000578560E070E0480F591F611D711D4F5EEB
:100120005F4F6F4F7F4F80899189480F591F611D25
:10013000711D82899389480F591F611D711D400FE0
:10014000511F621F731F400F511F621F731F84894D
:100150009589480F591F611D711D86899789480F20
:10016000591F611D711D848D958D982789279827AA
:10017000480F591F611D711D868D978D98278927FE
:100180009827480F591F611D711D80A190E0982F7D
:100190008827480F591F611D711DCB01009769F019
:1001A00066277727480F591F611D711DDB01CA01A2
:1001B0008827907FBF70CD01F1CF40955095538F28
:1001C000428F1F910F9108950F931F93DC01FC0143
:1001D00090E040E050E0BA01953031F0208131816B
:1001E000420F531F611D711D32969F5F9A30A1F718
:1001F0009B012115310561F066277727420F531FB8
:10020000611D711D8A019B010027107F3F70F1CF96
:10021000409550951B965C934E931A971F910F91A2
:1002200008956F927F928F929F92AF92BF92CF92DA
:10023000DF92EF92FF920F931F93CF93DF93CDB78F
:10024000DEB7CD55D1090FB6F894DEBF0FBECDBFD6
:100250008C014B0180E095E4F8019183808381E279
:1002600090E0938382831582148280E090E49783E8
:10027000868381E190E491878087138612867E01D0
:10028000F1E2EF0EF11C60E171E0C7010E94C403CE
:100290006DE171E0CE0101963C010E94C4036E0144
:1002A00096E5C90ED11CC60106969F938F930297BF
:1002B0009F938F9302979F938F93DF92CF928AE2BF
:1002C000A82E81E0B82EBF92AF92FF92EF920E94CB
:1002D000CB037E01EEE4EE0EF11CC70106969F9360
:1002E0008F9302979F938F9302979F938F93FF9281
:1002F000EF92BF92AF927F926F920E94CB0320E069
:1003000030E0F601308182819381822B932BF801BA
:100310009587848720E030E0F601348186819781DB
:10032000822B932BF8019787868720E030E0F70136
:10033000308182819381822B932BF801918B808B6A
:1003400020E030E0F701348186819781822B932B66
:10035000F801938B828BB401CE018F5B9F4F0E947B
:100360005D008DE0FE01EF5BFF4FD80154960190D8
:100370000D928A95E1F7C8010E94E400C8010E942D
:100380007E00F801808191819827892798279183A1
:1003900080838281938198278927982793838283FA
:1003A00084819581982789279827958384838681DE
:1003B00097819827892798279783868380859185B9
:1003C0009827892798279187808782859385982702
:1003D00089279827938782878485958598278927F9
:1003E00098279587848786859785982789279827D2
:1003F0009787868780899189982789279827918B65
:10040000808B82899389982789279827938B828B61
:1004100084899589982789279827958B848B868945
:100420009789982789279827978B868B808D918D20
:10043000982789279827918F808F828D938D982771
:1004400089279827938F828F0FB6F894DEBF0FBE4F
:10045000CDBFC35ADF4F0FB6F894DEBF0FBECDBF7E
:10046000DF91CF911F910F91FF90EF90DF90CF9090
:10047000BF90AF909F908F907F906F9008950F9353
:100480001F93CF93DF938C0180EC0E942C03E80133
:100490000F5D1F4F8991803C29F48BED0E942C0346
:1004A0008CED05C08B3D19F40E942C038DED0E944C
:1004B0002C03C017D10771F780ECDF91CF911F910A
:1004C0000F910C942C030F931F93CF93DF93F89409
:1004D000EC018C011C5F0E944103C017D10749F455
:1004E00081E0809301017894DF91CF911F910F916A
:1004F00008958993F0CFFC01808191819827892705
:1005000098279183808382819381982789279827D0
:10051000938382838481958198278927982795835F
:100520008483868197819827892798279783868354
:10053000808591859827892798279187808782854C
:10054000938598278927982793878287848595851F
:100550009827892798279587848786859785982760
:10056000892798279787868780899189982789275F
:100570009827918B808B8289938998278927982740
:10058000938B828B84899589982789279827958BC7
:10059000848B86899789982789279827978B868BBC
:1005A000808D918D982789279827918F808F828DB4
:1005B000938D982789279827938F828F858D8230F6
:1005C00019F4868D8093000108951F920F920FB643
:1005D0000F921124109201010F900FBE0F901F90E7
:1005E0001895EAE7F0E0908197609083ACE7B0E07F
:1005F0009C9190669C939C91907F892B8C93808199
:1006000080688083089580917A00806480937A0066
:1006100080917A0086FDFCCF8091790090E008956A
:100620009B01AC0184E0220F331F441F551F8A95A4
:10063000D1F760E074E284EF90E00E94A2032150C1
:1006400031093093C5002093C40088E98093C1002C
:1006500086E08093C20008959091C00095FFFCCF82
:100660008093C6000895CF93C82F8A3019F48DE087
:100670000E942C038C2F0E942C0380E090E0CF91ED
:1006800008958091C00087FFFCCF8091C600089537
:1006900087E690E09093C5008093C40088E980933A
:1006A000C10086E08093C20082E091E0909339011E
:1006B000809338010895CF93DF93CDB7DEB7C6544A
:1006C000D4400FB6F894DEBF0FBECDBF60E875E230
:1006D00080E090E00E94100378948AE1CD5BDB4FCC
:1006E0008883C354D4408DE0CC5BDB4F8883C454F3
:1006F000D4408CE4CB5BDB4F8883C554D4408BE47F
:10070000CA5BDB4F8883C654D440BE016D5B7B4F10
:10071000CE018E5D9B4F0E941101CE018E5D9B4FDD
:100720000E943F02809101018111FECFCE0101960E
:100730000E946302BE016F5F7B4FCE0101960E9453
:100740007B02F0CFA1E21A2EAA1BBB1BFD010DC03C
:10075000AA1FBB1FEE1FFF1FA217B307E407F50771
:1007600020F0A21BB30BE40BF50B661F771F881F4D
:10077000991F1A9469F760957095809590959B01E3
:10078000AC01BD01CF010895FB01DC0101900D9288
:100790000020E1F70895AEE0B0E0E1EDF3E00C9465
:1007A0000F0785E08C838B899C899A838983AE01AE
:1007B000495E5F4F6D897E89CE0101960E9480055A
:1007C0002E96E2E00C942B0720FD09C0FC0123FDCE
:1007D00005C022FF02C07383628351834083089562
:1007E00044FD17C046FD17C0AB01BC01DA01FB0197
:1007F000AA0FBB1FEE1FFF1F1094D1F74A0F5B1FFC
:100800006E1F7F1FCB01BA01660F771F881F991FCC
:1008100009C033E001C034E0660F771F881F991FBD
:100820003150D1F7620F711D811D911D08950F93F5
:100830001F93CF93DF938C01C8010E94A506EC01A2
:1008400097FD08C00E949106892BB1F7B801CE012F
:100850000E94E306CE01DF91CF911F910F91089581
:100860008F929F92AF92BF92EF92FF920F931F933E
:10087000CF93DF938C01D62F7A01B22E0E94A5066A
:100880009C0133272B32310531F02D32310561F4D3
:100890008B2D8068B82ED15011F480E068C0C8015B
:1008A0000E94A50697FDF9CFCB2DCD7F2B2D207370
:1008B00009F58033F9F4AA24AA94AD0E09F443C0D3
:1008C000C8010E94A50697FD3EC09C012F7D3327DD
:1008D0002835310549F4C264D250A9F1C8010E94FB
:1008E000A50697FF07C02FC0B6FE02C0C26001C0B8
:1008F000C261DA2D812C912C540120ED280F283073
:1009000080F0C4FF04C0B8010E94E30619C02A3079
:1009100040F0C6FFF8CF2F7D3FEE320F363098F70C
:1009200027504C2FC501B4010E94F0034B015C011C
:10093000C260D15059F0C8010E94A50697FFDDCFD3
:10094000C1FD04C0AACF812C912C5401C7FF08C05F
:10095000B094A09490948094811C911CA11CB11C13
:100960002C2FB501A401C7010E94E40381E0DF91AF
:10097000CF911F910F91FF90EF90BF90AF909F90FC
:100980008F900895A0E2B0E0E8ECF4E00C94020748
:100990005C01962E7A01F9018E010F5F1F4F6801ED
:1009A00080E2D8011D928A95E9F7D50113968C90C3
:1009B00080E090E0612C712C30E061E070E083FC1D
:1009C000259183FE21918F01522E211103C080E0D9
:1009D00090E092C02E3511F4009751F1432F50E072
:1009E000481759073CF42D3559F12D3219F4772069
:1009F00009F103C0772009F46AC0452D4695469554
:100A00004695D601A40FB11D452D47708B0102C03C
:100A1000000F111F4A95E2F7A8015C91452B4C93FA
:100A2000651459F0561410F45394E7CF5A94E5CF57
:100A300031E004C07724739401C0712C0196BFCFBC
:100A4000772019F08E8180628E83311103C0882453
:100A5000839417C0F6019E012F5D3F4F80818095E2
:100A600081932E173F07D1F7F2CFE114F10429F05B
:100A7000D7018C93F70131967F019A94812C9920AC
:100A8000F9F0C5010E94A50697FD18C0FC01FF27DB
:100A900023E0F595E7952A95E1F7EC0DFD1D208102
:100AA00030E0AC014770552702C0359527954A952F
:100AB000E2F720FDDACFB5010E94E306811087CF6F
:100AC000E114F10411F0D7011C92C80115C0422FA6
:100AD000469546954695D601A40FB11D422F477005
:100AE0008B0102C0000F111F4A95E2F7A8015C912B
:100AF000452B4C93622EA2CFA096EFE00C941E07DC
:100B0000A0E0B0E0E6E8F5E00C9402076C01EB0130
:100B10005A01FC0117821682512CF601E380FE0176
:100B2000E3FC8591E3FE8191182FEF01882309F4FE
:100B3000EEC090E00E949106892B21F0C6010E9430
:100B40001704EBCF153241F4FE01E3FC1591E3FEEF
:100B50001191EF01153281F4C6010E94A50697FD9F
:100B6000D4C0412F50E09C01332724173507A9F248
:100B7000B6010E94E306CBC01A3239F4E3FC1591AA
:100B8000E3FE1191EF0101E001C000E0F12C20ED46
:100B9000210F2A3080F402606F2D70E080E090E039
:100BA00040E20E94F003F62EFE01E3FC1591E3FE05
:100BB0001191EF01ECCF01FF03C0F11003C0A7C0FA
:100BC000FF24FA94183619F01C3651F010C0FE01BB
:100BD000E3FC1591E3FE1191EF01183641F4086032
:100BE0000460FE01E3FC1591E3FE1191EF01112376
:100BF00009F48DC0612F70E088E690E00E949A06AB
:100C0000892B09F484C000FD07C0F5018080918024
:100C1000C50102965C0102C0812C912C1E3651F454
:100C2000F6014681578160E070E0202FC4010E94E8
:100C3000E40373CF1336A9F401FD02C0FF24F3943B
:100C4000C6010E94A50697FD60C08114910429F099
:100C5000F4018083C40101964C01FA94F110F0CFA5
:100C600050C01B3559F49E01A4016F2DC6010E948E
:100C7000C204EC01892B09F044C03EC0C6010E94A9
:100C8000170497FD42C01F3661F128F4143639F17C
:100C9000193651F128C0133771F0153701F123C00F
:100CA0008114910429F0F4016082C40101964C0181
:100CB000FA94FF2071F0C6010E94A5063C0197FD41
:100CC00008C00E949106892B59F3B601C3010E9406
:100CD000E30681149104A9F0F401108212C00062AD
:100CE00003C0006101C00064202FA4016F2DC60164
:100CF0000E943004811105C0F6018381807329F4BC
:100D000006C000FD0ACF539408CF552019F0852D59
:100D100090E002C08FEF9FEFCDB7DEB7EFE00C940D
:100D20001E0791110C94FC06803219F089508550F1
:100D3000C8F70895FC010590061621F00020D9F7A8
:100D4000C00108953197CF010895CF93DF93EC014F
:100D50002B8120FF33C026FF0AC02F7B2B838E817F
:100D60009F8101969F838E838A8190E029C022FF14
:100D70000FC0E881F9818081082E000C990B009743
:100D800019F420622B831AC03196F983E8830EC0D0
:100D9000EA85FB85099597FF09C02B81019611F023
:100DA00080E201C080E1822B8B8308C02E813F81CD
:100DB0002F5F3F4F3F832E83992702C08FEF9FEF16
:100DC000DF91CF910895FB01238120FF12C026FD02
:100DD00010C08F3F3FEF930761F082832F7D206427
:100DE0002383268137812150310937832683992730
:100DF00008958FEF9FEF08959927882708952F92E0
:100E00003F924F925F926F927F928F929F92AF929A
:100E1000BF92CF92DF92EF92FF920F931F93CF93E7
:100E2000DF93CDB7DEB7CA1BDB0B0FB6F894DEBF7E
:100E30000FBECDBF09942A88398848885F846E84A4
:100E40007D848C849B84AA84B984C884DF80EE80EE
:100E5000FD800C811B81AA81B981CE0FD11D0FB6F7
:100E6000F894DEBF0FBECDBFED010895F894FFCF1B
:100E70000301000000020000000033030000000036
:100E80003139322E3136382E302E32370031393268
:100E90002E3136382E302E32360025642E25642E23
:060EA00025642E2564000C
:00000001FF
