:100000000C943A000C9457000C9457000C94570031
:100010000C9457000C9457000C9457000C94570004
:100020000C9457000C9457000C9457000C945700F4
:100030000C9457000C9457000C9457000C945700E4
:100040000C9457000C9457000C9457000C945700D4
:100050000C9457000C9457000C9457000C945700C4
:100060000C9457000C9457006364696E6F7073753D
:1000700078585B0011241FBECFEFD8E0DEBFCDBFA4
:1000800011E0A0E0B1E0E2E3FDE002C005900D92D6
:10009000A433B107D9F721E0A4E3B1E001C01D9278
:1000A000AA33B207E1F70E94D4020C9497060C948D
:1000B00000009827892798270895FC01DB018DEA25
:1000C00090E19183808380EA9FE0938382838DE037
:1000D00090E095838483178216823C9111962C912F
:1000E000119712969C91129713968C9143E040873A
:1000F000318722879387848708950F931F93FC018C
:10010000008D118D20E030E08485958546855785EA
:1001100060E070E0480F591F611D711D4F5E5F4F19
:100120006F4F7F4F80899189480F591F611D711D45
:1001300082899389480F591F611D711D400F511FFE
:10014000621F731F400F511F621F731F848995899F
:10015000480F591F611D711D86899789480F591FC6
:10016000611D711D848D958D982789279827480FCB
:10017000591F611D711D868D978D98278927982796
:10018000480F591F611D711D80A190E0982F88278D
:10019000480F591F611D711DCB01009769F066273B
:1001A0007727480F591F611D711DDB01CA01882780
:1001B000907FBF70CD01F1CF40955095538F428F06
:1001C0001F910F9108950F931F93DC01FC0190E0A4
:1001D00040E050E0BA01953031F020813181420F8A
:1001E000531F611D711D32969F5F9A30A1F79B01CD
:1001F0002115310561F066277727420F531F611DD6
:10020000711D8A019B010027107F3F70F1CF40953F
:1002100050951B965C934E931A971F910F910895DA
:100220006F927F928F929F92AF92BF92CF92DF9206
:10023000EF92FF920F931F93CF93DF93CDB7DEB76B
:10024000CD55D1090FB6F894DEBF0FBECDBF8C01DE
:100250004B0180E095E4F8019183808381E290E096
:10026000938382831582148280E090E4978386834F
:1002700081E190E491878087138612867E01F1E206
:10028000EF0EF11C6EE071E0C7010E9424036BE1E8
:1002900071E0CE0101963C010E9424036E0196E5B7
:1002A000C90ED11CC60106969F938F9302979F9308
:1002B0008F9302979F938F93DF92CF9288E2A82E1D
:1002C00081E0B82EBF92AF92FF92EF920E942B0373
:1002D0007E01EEE4EE0EF11CC70106969F938F930C
:1002E00002979F938F9302979F938F93FF92EF9222
:1002F000BF92AF927F926F920E942B0320E030E07A
:10030000F601308182819381822B932BF8019587AE
:10031000848720E030E0F601348186819781822B4A
:10032000932BF8019787868720E030E0F701308132
:1003300082819381822B932BF801918B808B20E01B
:1003400030E0F701348186819781822B932BF8016D
:10035000938B828BB401CE018F5B9F4F0E945D0017
:100360008DE0FE01EF5BFF4FD801549601900D9296
:100370008A95E1F7C8010E94E300C8010E947D0050
:10038000F80180819181982789279827918380831C
:1003900082819381982789279827938382838481F8
:1003A00095819827892798279583848386819781CB
:1003B0009827892798279783868380859185982712
:1003C0008927982791878087828593859827892711
:1003D00098279387828784859585982789279827EA
:1003E0009587848786859785982789279827978773
:1003F000868780899189982789279827918B808B78
:1004000082899389982789279827938B828B84895F
:100410009589982789279827958B848B8689978932
:10042000982789279827978B868B808D918D982781
:1004300089279827918F808F828D938D9827892780
:100440009827938F828F0FB6F894DEBF0FBECDBF73
:10045000C35ADF4F0FB6F894DEBF0FBECDBFDF919A
:10046000CF911F910F91FF90EF90DF90CF90BF90B1
:10047000AF909F908F907F906F900895EF92FF9232
:100480000F931F93CF93DF931F92CDB7DEB7182F33
:1004900080EC99830E94AB02E12E9981F92E8701AD
:1004A0000F5D1F4FF70181917F01803C29F48BED97
:1004B0000E94AB028CED05C08B3D19F40E94AB028B
:1004C0008DED0E94AB02E016F10661F780EC0F9013
:1004D000DF91CF911F910F91FF90EF900C94AB02A1
:1004E000EAE7F0E0908197609083ACE7B0E09C9100
:1004F00090669C939C91907F892B8C9380818068DF
:100500008083089580917A00806480937A0080913E
:100510007A0086FDFCCF8091790090E008959B01E0
:10052000AC0184E0220F331F441F551F8A95D1F779
:1005300060E074E284EF90E00E94020321503109F0
:100540003093C5002093C40088E18093C10086E009
:100550008093C20008959091C00095FFFCCF8093D6
:10056000C6000895CF93C82F8A3019F48DE00E94F9
:10057000AB028C2F0E94AB0280E090E0CF910895F7
:100580008091C00087FFFCCF8091C600089560E88D
:1005900075E280E090E00E948F0280E091E090930D
:1005A0003701809336010895CF93DF93CDB7DEB73F
:1005B000A5970FB6F894DEBF0FBECDBF60E875E219
:1005C00080E090E00E948F028AE18AA38DE08BA3F5
:1005D0008CE48CA38BE48DA3BE016E5D7F4FCE01B6
:1005E00001960E941001CE0101960E943E0280E019
:1005F00090E0A5960FB6F894DEBF0FBECDBFDF9199
:10060000CF910895A1E21A2EAA1BBB1BFD010DC0BC
:10061000AA1FBB1FEE1FFF1FA217B307E407F507B2
:1006200020F0A21BB30BE40BF50B661F771F881F8E
:10063000991F1A9469F760957095809590959B0124
:10064000AC01BD01CF010895FB01DC0101900D92C9
:100650000020E1F70895AEE0B0E0E1E3F3E00C94B0
:10066000700685E08C838B899C899A838983AE018F
:10067000495E5F4F6D897E89CE0101960E94C40458
:100680002E96E2E00C948C0620FD09C0FC0123FDAF
:1006900005C022FF02C073836283518340830895A3
:1006A00044FD10C046FD10C0DB01FC01AA0FBB1FBA
:1006B000EE1FFF1F1094D1F76A0F7B1F8E1F9F1F25
:1006C00031E003C033E001C034E0660F771F881FBC
:1006D000991F3150D1F7620F711D811D911D089531
:1006E0000F931F93CF93DF938C01C8010E940606DE
:1006F000EC0197FD08C00E94F205892BB1F7B80103
:10070000CE010E944406CE01DF91CF911F910F913F
:100710000895A1E0B0E0EFE8F3E00C9466068C01E8
:10072000C62E7A0129830E940606AC01552729812D
:100730004B32510521F04D32510569F42068CA94BD
:10074000C11002C080E076C0C80129830E9406065D
:10075000298197FDF7CF322F3D7FD32E322F307373
:1007600049F5803339F5BB24BA94BC0C09F44EC06A
:10077000C80129830E940606298197FD47C0382FAA
:100780003F7D383569F48D2D8264D82ECA94CA9481
:10079000CC20E1F1C8010E94060697FF0BC036C0CD
:1007A00026FF04C02D2D2260D22E03C03D2D3261C4
:1007B000D32ECB2C812C912C540120ED280F2830E6
:1007C00080F0D4FE04C0B8010E9444061CC02A3048
:1007D00040F0D6FEF8CF2F7D3FEE320F363098F73F
:1007E00027504D2DC501B4010E9450034B015C01FF
:1007F0008D2D8260D82ECA94CC2059F0C8010E9459
:10080000060697FFDACFD1FC04C09CCF812C912C37
:100810005401D7FE08C0B094A09490948094811C99
:10082000911CA11CB11C2D2DB501A401C7010E9472
:10083000440381E02196ECE00C948206A1E2B0E052
:10084000E4E2F4E00C9464065C017A01CE010196C6
:100850006C0180E2F60111928A95E9F7F501838037
:1008600040E050E0912C712C70E0A1E0B0E0F90183
:1008700083FC859183FE81918F01982F9F018111C7
:1008800003C080E090E07CC08E3519F4411551051D
:1008900049F1E72FF0E0E417F5073CF48D3559F105
:1008A0008D3219F4772001F103C0711001C0982E28
:1008B000892F8695869586958601080F111D892FAB
:1008C00087703D0101C0660C8A95EAF7F8018081C6
:1008D00086298083991559F0991510F49F5FE8CF08
:1008E0009150E6CF71E004C07724739401C0712C5D
:1008F0004F5F5F4FBCCF772019F08E8180628E836F
:10090000711103C09924939416C0F6019E012F5DC6
:100910003F4F808180958193E217F307D1F7F2CFA3
:10092000E114F10429F0F7018083C70101967C01ED
:100930006150912CF9F0C50169A30E94060669A1D6
:1009400097FD16C0282F269526952695F601E20FCD
:10095000F11D208130E0AC014770552702C035956C
:1009600027954A95E2F720FDDBCFB5010E944406AA
:10097000911087CFE114F10411F0F7011082C80142
:10098000A196EEE00C9480064F925F927F928F9238
:100990009F92AF92BF92CF92DF92EF92FF920F930E
:1009A0001F93CF93DF931F92CDB7DEB76C012B015E
:1009B0005A01FC0117821682712CF601F380F201B4
:1009C000F3FC8591F3FE8191382F2F01882309F4E0
:1009D000F3C090E039830E94F2053981892B21F020
:1009E000C6010E947003E9CF353241F4F201F3FCF5
:1009F0003591F3FE31912F01353269F4C601398307
:100A00000E940606398197FDD5C03817B1F2B601AC
:100A10000E944406D1C03A3239F4F3FC3591F3FE1A
:100A200031912F0151E001C050E0420110E020ED72
:100A3000230F2A3090F45260612F70E080E090E044
:100A400040E259830E945003162FF401F3FC3591C4
:100A5000F3FE31914F015981EACF052F232F240155
:100A600051FF03C0111102C0A7C01FEF383619F0A3
:100A70003C3659F011C0F401F3FC2591F3FE2191AD
:100A80002F01283649F4052F08600460F201F3FCB9
:100A90002591F3FE21912F01222309F48DC0622FAD
:100AA00070E088E690E029830E94FB052981892B6C
:100AB00009F482C000FD07C0F501E080F180C501A6
:100AC00002965C0102C0E12CF12C2E3651F4F601A5
:100AD0004681578160E070E0202FC7010E944403E7
:100AE0006CCF233691F401FF11E0C6010E94060687
:100AF00097FD60C0E114F10429F0F7018083C7017C
:100B000001967C01115089F751C02B3559F492019F
:100B1000A701612FC6010E941E042C01892B09F038
:100B200045C03FC0C60129830E947003298197FDFB
:100B300041C02F3659F128F4243631F1293649F1D4
:100B400027C0233769F02537F9F022C0E114F104FA
:100B500029F0F7018082C70101967C01115071F0E4
:100B6000C6010E9406064C0197FD08C00E94F205CE
:100B7000892B61F3B601C4010E944406E114F1041B
:100B8000A9F0F701108212C0006203C0006101C029
:100B90000064202FA701612FC6010E9489038111E3
:100BA00005C0F6018381807329F406C000FD05CFDE
:100BB000739403CF772019F0872D90E002C08FEF58
:100BC0009FEF0F90DF91CF911F910F91FF90EF90CA
:100BD000DF90CF90BF90AF909F908F907F905F906D
:100BE0004F90089591110C945D06803219F0895050
:100BF0008550C8F70895FC010590061621F00020E5
:100C0000D9F7C00108953197CF010895CF93DF93AD
:100C1000EC012B8120FF33C026FF0AC02F7B2B83E2
:100C20008E819F8101969F838E838A8190E029C067
:100C300022FF0FC0E881F9818081082E000C990BFA
:100C4000009719F420622B831AC03196F983E88348
:100C50000EC0EA85FB85099597FF09C02B81019697
:100C600011F080E201C080E1822B8B8308C02E81CD
:100C70003F812F5F3F4F3F832E83992702C08FEF25
:100C80009FEFDF91CF910895FB01238120FF12C0D8
:100C900026FD10C08F3F3FEF930761F082832F7DC9
:100CA00020642383268137812150310937832683AD
:100CB000992708958FEF9FEF089599278827089522
:100CC0002F923F924F925F926F927F928F929F925C
:100CD000AF92BF92CF92DF92EF92FF920F931F934A
:100CE000CF93DF93CDB7DEB7CA1BDB0B0FB6F894FB
:100CF000DEBF0FBECDBF09942A88398848885F843B
:100D00006E847D848C849B84AA84B984C884DF80AB
:100D1000EE80FD800C811B81AA81B981CE0FD11D8F
:100D20000FB6F894DEBF0FBECDBFED010895F89465
:020D3000FFCFF3
:100D32000000000200000000B20200000000313991
:100D4200322E3136382E302E3237003139322E31B2
:100D520036382E302E32360025642E25642E256438
:040D62002E256400D6
:00000001FF
