:100000000C943A000C9457000C9457000C94570031
:100010000C9457000C9457000C9457000C94570004
:100020000C9457000C9457000C9457000C945700F4
:100030000C9457000C9457000C9457000C945700E4
:100040000C9457000C9457000C9464020C945700C5
:100050000C9457000C9457000C9457000C945700C4
:100060000C9457000C9457006364696E6F7073753D
:1000700078585B0011241FBECFEFD8E0DEBFCDBFA4
:1000800011E0A0E0B1E0ECE1FDE002C005900D92CE
:10009000A433B107D9F721E0A4E3B1E001C01D9278
:1000A000AD33B207E1F70E94DE020C948C060C948B
:1000B00000009827892798270895FC01DB018DEA25
:1000C00090E19183808380EA9FE0938382838DE037
:1000D00090E095838483178216823C9111962C912F
:1000E000119712969C91129713968C9143E040873A
:1000F000318722879387848708950F931F93FC018C
:10010000008D118D20E030E08485958546855785EA
:1001100060E070E0480F591F611D711D4F5E5F4F19
:100120006F4F7F4F80899189480F591F611D711D45
:1001300082899389480F591F611D711D400F511FFE
:10014000621F731F400F511F621F731F848995899F
:10015000480F591F611D711D86899789480F591FC6
:10016000611D711D848D958D982789279827480FCB
:10017000591F611D711D868D978D98278927982796
:10018000480F591F611D711D80A190E0982F88278D
:10019000480F591F611D711DCB01009769F066273B
:1001A0007727480F591F611D711DDB01CA01882780
:1001B000907FBF70CD01F1CF40955095538F428F06
:1001C0001F910F9108950F931F93DC01FC0190E0A4
:1001D00040E050E0BA01953031F020813181420F8A
:1001E000531F611D711D32969F5F9A30A1F79B01CD
:1001F0002115310561F066277727420F531F611DD6
:10020000711D8A019B010027107F3F70F1CF40953F
:1002100050951B965C934E931A971F910F910895DA
:100220006F927F928F929F92AF92BF92CF92DF9206
:10023000EF92FF920F931F93CF93DF93CDB7DEB76B
:10024000CD55D1090FB6F894DEBF0FBECDBF8C01DE
:100250004B0180E095E4F8019183808381E290E096
:10026000938382831582148280E090E4978386834F
:1002700081E190E491878087138612867E01F1E206
:10028000EF0EF11C6EE071E0C7010E941A036BE1F2
:1002900071E0CE0101963C010E941A036E0196E5C1
:1002A000C90ED11CC60106969F938F9302979F9308
:1002B0008F9302979F938F93DF92CF9288E2A82E1D
:1002C00081E0B82EBF92AF92FF92EF920E9421037D
:1002D0007E01EEE4EE0EF11CC70106969F938F930C
:1002E00002979F938F9302979F938F93FF92EF9222
:1002F000BF92AF927F926F920E94210320E030E084
:10030000F601308182819381822B932BF8019587AE
:10031000848720E030E0F601348186819781822B4A
:10032000932BF8019787868720E030E0F701308132
:1003300082819381822B932BF801918B808B20E01B
:1003400030E0F701348186819781822B932BF8016D
:10035000938B828BB401CE018F5B9F4F0E945D0017
:100360008DE0FE01EF5BFF4FD801549601900D9296
:100370008A95E1F7C8010E94E300C8010E947D0050
:10038000F80180819181982789279827918380831C
:1003900082819381982789279827938382838481F8
:1003A00095819827892798279583848386819781CB
:1003B0009827892798279783868380859185982712
:1003C0008927982791878087828593859827892711
:1003D00098279387828784859585982789279827EA
:1003E0009587848786859785982789279827978773
:1003F000868780899189982789279827918B808B78
:1004000082899389982789279827938B828B84895F
:100410009589982789279827958B848B8689978932
:10042000982789279827978B868B808D918D982781
:1004300089279827918F808F828D938D9827892780
:100440009827938F828F0FB6F894DEBF0FBECDBF73
:10045000C35ADF4F0FB6F894DEBF0FBECDBFDF919A
:10046000CF911F910F91FF90EF90DF90CF90BF90B1
:10047000AF909F908F907F906F9008950F931F93F0
:10048000CF93DF938C0180EC0E94AF02E8010F5DF7
:100490001F4F8991803C29F48BED0E94AF028CEDB7
:1004A00005C08B3D19F40E94AF028DED0E94AF0292
:1004B000C017D10771F780ECDF91CF911F910F9199
:1004C0000C94AF02259A08951F920F920FB60F92C7
:1004D00011248F938091C600809336018F910F90E5
:1004E0000FBE0F901F901895EAE7F0E0908197609B
:1004F0009083ACE7B0E09C9190669C939C91907F38
:10050000892B8C93808180688083089580917A0004
:10051000806480937A0080917A0086FDFCCF809180
:10052000790090E008959B01AC0184E0220F331F15
:10053000441F551F8A95D1F760E074E284EF90E084
:100540000E94F802215031093093C5002093C40065
:1005500088E98093C10086E08093C200089590915D
:10056000C00095FFFCCF8093C6000895CF93C82F9D
:100570008A3019F48DE00E94AF028C2F0E94AF02E6
:1005800080E090E0CF9108958091C00087FFFCCF7C
:100590008091C600089587E690E09093C50080930F
:1005A000C40088E98093C10086E08093C20080E0A7
:1005B00091E090933A0180933901089560E875E2E3
:1005C00080E090E00E9493020E94620278942D9A4B
:1005D0002D9A809136010E94AF022D982FEF89E667
:1005E00098E1215080409040E1F700C00000F0CF3A
:1005F000A1E21A2EAA1BBB1BFD010DC0AA1FBB1F27
:10060000EE1FFF1FA217B307E407F50720F0A21B98
:10061000B30BE40BF50B661F771F881F991F1A9405
:1006200069F760957095809590959B01AC01BD012F
:10063000CF010895FB01DC0101900D920020E1F74C
:100640000895AEE0B0E0E7E2F3E00C94650685E0E3
:100650008C838B899C899A838983AE01495E5F4F25
:100660006D897E89CE0101960E94D6042E96E2E025
:100670000C94810620FD09C0FC0123FD05C022FF6A
:1006800002C07383628351834083089544FD17C081
:1006900046FD17C0AB01BC01DA01FB01AA0FBB1F6D
:1006A000EE1FFF1F1094D1F74A0F5B1F6E1F7F1FB5
:1006B000CB01BA01660F771F881F991F09C033E06D
:1006C00001C034E0660F771F881F991F3150D1F7A2
:1006D000620F711D811D911D08950F931F93CF937C
:1006E000DF938C01C8010E94FB05EC0197FD08C057
:1006F0000E94E705892BB1F7B801CE010E943906A7
:10070000CE01DF91CF911F910F9108958F929F920B
:10071000AF92BF92EF92FF920F931F93CF93DF930D
:100720008C01D62F7A01B22E0E94FB059C01332743
:100730002B32310531F02D32310561F48B2D80687B
:10074000B82ED15011F480E068C0C8010E94FB05AA
:1007500097FDF9CFCB2DCD7F2B2D207309F580335D
:10076000F9F4AA24AA94AD0E09F443C0C8010E946A
:10077000FB0597FD3EC09C012F7D332728353105B1
:1007800049F4C264D250A9F1C8010E94FB0597FF49
:1007900007C02FC0B6FE02C0C26001C0C261DA2D20
:1007A000812C912C540120ED280F283080F0C4FFBB
:1007B00004C0B8010E94390619C02A3040F0C6FFB3
:1007C000F8CF2F7D3FEE320F363098F727504C2F61
:1007D000C501B4010E9446034B015C01C260D150C7
:1007E00059F0C8010E94FB0597FFDDCFC1FD04C091
:1007F000AACF812C912C5401C7FF08C0B094A094BB
:1008000090948094811C911CA11CB11C2C2FB501CB
:10081000A401C7010E943A0381E0DF91CF911F91AB
:100820000F91FF90EF90BF90AF909F908F900895A1
:10083000A0E2B0E0EEE1F4E00C9458065C01962EE4
:100840007A01F9018E010F5F1F4F680180E2D80124
:100850001D928A95E9F7D50113968C9080E090E07F
:10086000612C712C30E061E070E083FC259183FE07
:1008700021918F01522E211103C080E090E092C09F
:100880002E3511F4009751F1432F50E048175907C6
:100890003CF42D3559F12D3219F4772009F103C0BC
:1008A000772009F46AC0452D469546954695D601B0
:1008B000A40FB11D452D47708B0102C0000F111F01
:1008C0004A95E2F7A8015C91452B4C93651459F0C9
:1008D000561410F45394E7CF5A94E5CF31E004C096
:1008E0007724739401C0712C0196BFCF772019F043
:1008F0008E8180628E83311103C08824839417C057
:10090000F6019E012F5D3F4F8081809581932E17C8
:100910003F07D1F7F2CFE114F10429F0D7018C930E
:10092000F70131967F019A94812C9920F9F0C50145
:100930000E94FB0597FD18C0FC01FF2723E0F595F9
:10094000E7952A95E1F7EC0DFD1D208130E0AC0123
:100950004770552702C0359527954A95E2F720FD47
:10096000DACFB5010E943906811087CFE114F10476
:1009700011F0D7011C92C80115C0422F469546952B
:100980004695D601A40FB11D422F47708B0102C0BE
:10099000000F111F4A95E2F7A8015C91452B4C937B
:1009A000622EA2CFA096EFE00C947406A0E0B0E017
:1009B000ECEDF4E00C9458066C01EB015A01FC01DB
:1009C00017821682512CF601E380FE01E3FC85912B
:1009D000E3FE8191182FEF01882309F4EEC090E027
:1009E0000E94E705892B21F0C6010E946D03EBCF21
:1009F000153241F4FE01E3FC1591E3FE1191EF0184
:100A0000153281F4C6010E94FB0597FDD4C0412F29
:100A100050E09C01332724173507A9F2B6010E9444
:100A20003906CBC01A3239F4E3FC1591E3FE11917B
:100A3000EF0101E001C000E0F12C20ED210F2A3090
:100A400080F402606F2D70E080E090E040E20E9450
:100A50004603F62EFE01E3FC1591E3FE1191EF0132
:100A6000ECCF01FF03C0F11003C0A7C0FF24FA942C
:100A7000183619F01C3651F010C0FE01E3FC159138
:100A8000E3FE1191EF01183641F408600460FE01A5
:100A9000E3FC1591E3FE1191EF01112309F48DC0E0
:100AA000612F70E088E690E00E94F005892B09F440
:100AB00084C000FD07C0F50180809180C5010296C9
:100AC0005C0102C0812C912C1E3651F4F601468146
:100AD000578160E070E0202FC4010E943A0373CF79
:100AE0001336A9F401FD02C0FF24F394C6010E944D
:100AF000FB0597FD60C08114910429F0F401808307
:100B0000C40101964C01FA94F110F0CF50C01B358E
:100B100059F49E01A4016F2DC6010E941804EC0136
:100B2000892B09F044C03EC0C6010E946D0397FDA9
:100B300042C01F3661F128F4143639F1193651F1EB
:100B400028C0133771F0153701F123C081149104C7
:100B500029F0F4016082C40101964C01FA94FF204F
:100B600071F0C6010E94FB053C0197FD08C00E9480
:100B7000E705892B59F3B601C3010E943906811498
:100B80009104A9F0F401108212C0006203C0006158
:100B900001C00064202FA4016F2DC6010E948603AE
:100BA000811105C0F6018381807329F406C000FD20
:100BB0000ACF539408CF552019F0852D90E002C03C
:100BC0008FEF9FEFCDB7DEB7EFE00C947406911175
:100BD0000C945206803219F089508550C8F7089558
:100BE000FC010590061621F00020D9F7C0010895F8
:100BF0003197CF010895CF93DF93EC012B8120FF34
:100C000033C026FF0AC02F7B2B838E819F810196E4
:100C10009F838E838A8190E029C022FF0FC0E881E4
:100C2000F9818081082E000C990B009719F420623D
:100C30002B831AC03196F983E8830EC0EA85FB85C1
:100C4000099597FF09C02B81019611F080E201C040
:100C500080E1822B8B8308C02E813F812F5F3F4F25
:100C60003F832E83992702C08FEF9FEFDF91CF91B3
:100C70000895FB01238120FF12C026FD10C08F3F85
:100C80003FEF930761F082832F7D206423832681C9
:100C900037812150310937832683992708958FEFB3
:100CA0009FEF08959927882708952F923F924F929A
:100CB0005F926F927F928F929F92AF92BF92CF92EC
:100CC000DF92EF92FF920F931F93CF93DF93CDB7F5
:100CD000DEB7CA1BDB0B0FB6F894DEBF0FBECDBF6D
:100CE00009942A88398848885F846E847D848C843E
:100CF0009B84AA84B984C884DF80EE80FD800C8147
:100D00001B81AA81B981CE0FD11D0FB6F894DEBF29
:0C0D10000FBECDBFED010895F894FFCF99
:100D1C000000000200000000B602000000003139A3
:100D2C00322E3136382E302E3237003139322E31C8
:100D3C0036382E302E32360025642E25642E25644E
:040D4C002E256400EC
:00000001FF
