:100000000C9434000C9451000C9451000C94510049
:100010000C9451000C9451000C9451000C9451001C
:100020000C9451000C9451000C9451000C9451000C
:100030000C9451000C9451000C9451000C945100FC
:100040000C9451000C9451000C9451000C945100EC
:100050000C9451000C9451000C9451000C945100DC
:100060000C9451000C94510011241FBECFEFD8E026
:10007000DEBFCDBF11E0A0E0B1E0E8E1FCE002C0EE
:1000800005900D92AC31B107D9F721E0ACE1B1E0B8
:1000900001C01D92A232B207E1F70E94C3000C9486
:1000A0000A060C940000EAE7F0E0908197609083E4
:1000B000ACE7B0E09C9190669C939C91907F892BDB
:1000C0008C93808180688083089580917A00806419
:1000D00080937A0080917A0086FDFCCF8091790030
:1000E00090E008959B01AC0184E0220F331F441F70
:1000F000551F8A95D1F760E074E284EF90E00E948A
:10010000FA00215031093093C5002093C40088E1E2
:100110008093C10086E08093C20008959091C00052
:1001200095FFFCCF8093C6000895CF93C82F8A30E7
:1001300019F48DE00E948E008C2F0E948E0080E0CA
:1001400090E0CF9108958091C00087FFFCCF80910F
:10015000C600089587E690E09093C5008093C400A0
:1001600088E18093C10086E08093C20080E091E046
:1001700090931F0180931E0108958CED0E948E00C4
:100180008CED0C948E000E94AA0080E00E94530027
:10019000CEE0D1E00E946500BC0180E090E00E94CA
:1001A000310223E333E343E550E40E94BF0220E041
:1001B00030E04FE753E40E94890120E030E040E066
:1001C0005FE30E941C0120E030E048EC52E40E9412
:1001D000BF020E94FB01862F062E000C990B9F93F5
:1001E0006F93DF93CF930E942C030F900F900F908B
:1001F0000F90D0CFA1E21A2EAA1BBB1BFD010DC090
:10020000AA1FBB1FEE1FFF1FA217B307E407F507C6
:1002100020F0A21BB30BE40BF50B661F771F881FA2
:10022000991F1A9469F760957095809590959B0138
:10023000AC01BD01CF0108955058BB27AA270E94E9
:1002400034010C9485020E94770238F00E947E02ED
:1002500020F039F49F3F19F426F40C9474020EF444
:10026000E095E7FB0C946E02E92F0E94960258F38A
:10027000BA17620773078407950720F079F4A6F58B
:100280000C94B8020EF4E0950B2EBA2FA02D0B01A2
:10029000B90190010C01CA01A0011124FF27591BCB
:1002A00099F0593F50F4503E68F11A16F040A22FD1
:1002B000232F342F4427585FF3CF46953795279542
:1002C000A795F0405395C9F77EF41F16BA0B620B41
:1002D000730B840BBAF09150A1F0FF0FBB1F661F88
:1002E000771F881FC2F70EC0BA0F621F731F841FCB
:1002F00048F4879577956795B795F7959E3F08F0F1
:10030000B0CF9395880F08F09927EE0F97958795B2
:1003100008950E949D010C9485020E947E0258F06F
:100320000E94770240F029F45F3F29F00C946E029E
:1003300051110C94B9020C9474020E94960268F355
:100340009923B1F3552391F3951B550BBB27AA278E
:1003500062177307840738F09F5F5F4F220F331FC8
:10036000441FAA1FA9F335D00E2E3AF0E0E832D090
:1003700091505040E695001CCAF72BD0FE2F29D093
:10038000660F771F881FBB1F261737074807AB0765
:10039000B0E809F0BB0B802DBF01FF2793585F4FDA
:1003A0003AF09E3F510578F00C946E020C94B9021D
:1003B0005F3FE4F3983ED4F3869577956795B795BC
:1003C000F7959F5FC9F7880F911D9695879597F9C7
:1003D0000895E1E0660F771F881FBB1F6217730740
:1003E0008407BA0720F0621B730B840BBA0BEE1F55
:1003F00088F7E09508950E9402026894B1110C9468
:10040000B90208950E949E0288F09F5798F0B92F74
:100410009927B751B0F0E1F0660F771F881F991F39
:100420001AF0BA95C9F714C0B13091F00E94B80221
:10043000B1E008950C94B802672F782F8827B85F31
:1004400039F0B93FCCF3869577956795B395D9F791
:100450003EF490958095709561957F4F8F4F9F4F9B
:100460000895E89409C097FB3EF4909580957095A7
:1004700061957F4F8F4F9F4F9923A9F0F92F96E9F0
:10048000BB279395F695879577956795B795F11165
:10049000F8CFFAF4BB0F11F460FF1BC06F5F7F4F02
:1004A0008F4F9F4F16C0882311F096E911C0772314
:1004B00021F09EE8872F762F05C0662371F096E81D
:1004C000862F70E060E02AF09A95660F771F881FEC
:1004D000DAF7880F9695879597F9089597F99F67AA
:1004E00080E870E060E008959FEF80EC08950024BC
:1004F0000A941616170618060906089500240A9489
:1005000012161306140605060895092E0394000C0E
:1005100011F4882352F0BB0F40F4BF2B11F460FF9D
:1005200004C06F5F7F4F8F4F9F4F089557FD9058C6
:10053000440F551F59F05F3F71F04795880F97FBA7
:10054000991F61F09F3F79F0879508951216130661
:100550001406551FF2CF4695F1DF08C01616170690
:100560001806991FF1CF86957105610508940895C5
:10057000E894BB2766277727CB0197F908950E9457
:10058000D2020C9485020E94770238F00E947E020B
:1005900020F0952311F00C946E020C947402112437
:1005A0000C94B9020E94960270F3959FC1F3950FC7
:1005B00050E0551F629FF001729FBB27F00DB11DE7
:1005C000639FAA27F00DB11DAA1F649F6627B00D77
:1005D000A11D661F829F2227B00DA11D621F739F60
:1005E000B00DA11D621F839FA00D611D221F749F6E
:1005F0003327A00D611D231F849F600D211D822FB5
:10060000762F6A2F11249F5750409AF0F1F08823DB
:100610004AF0EE0FFF1FBB1F661F771F881F915008
:100620005040A9F79E3F510580F00C946E020C9447
:10063000B9025F3FE4F3983ED4F3869577956795CA
:10064000B795F795E7959F5FC1F7FE2B880F911D32
:100650009695879597F90895A0E0B0E0E2E3F3E07E
:100660000C94E305AE014B5F5F4FFA01619171910C
:10067000AF0180911E0190911F010E944203E2E0B0
:100680000C94FF05ABE0B0E0E8E4F3E00C94D30594
:100690006C017B018A01FC0117821682838181FF34
:1006A000CCC1CE0101963C01F6019381F70193FD87
:1006B000859193FF81917F01882309F4BAC1853226
:1006C00039F493FD859193FF81917F01853229F45F
:1006D000B60190E00E943905E7CF912C212C312CF6
:1006E000FFE1F315D8F08B3279F038F4803279F0ED
:1006F0008332A1F4232D20611DC08D3261F080333F
:1007000069F4232D216016C0832D8260382EE32DDD
:10071000E4603E2E2AC0F32DF8601DC037FC2DC0CA
:1007200020ED280F2A3040F08E32B9F436FC81C11A
:10073000232D2064322E19C036FE06C08AE0989E12
:10074000200D1124922E11C0EAE02E9E200D1124BE
:10075000222EF32DF0623F2E08C08C3621F4832D1B
:100760008068382E02C0883641F4F70193FD8591E8
:1007700093FF81917F018111B3CF982F9F7D955475
:10078000933028F40C5F1F4F9FE399830DC083368D
:1007900031F0833771F0833509F059C021C0F80179
:1007A000808189830E5F1F4F88248394912C53018D
:1007B00013C02801F2E04F0E511CF801A080B18057
:1007C00036FE03C0692D70E002C06FEF7FEFC501F8
:1007D0000E942E054C018201F32DFF773F2E16C09B
:1007E000280122E0420E511CF801A080B18036FEA3
:1007F00003C0692D70E002C06FEF7FEFC5010E945A
:1008000023054C01F32DF0683F2E820133FC1BC001
:10081000822D90E088169906B0F4B60180E290E04F
:100820000E9439052A94F4CFF50137FC859137FEF3
:1008300081915F01B60190E00E94390521102A9450
:1008400021E0821A91088114910471F7E8C084367E
:1008500011F0893641F5F80137FE07C060817181DA
:10086000828193810C5F1F4F08C060817181072EC8
:10087000000C880B990B0E5F1F4FF32DFF763F2E58
:1008800097FF09C090958095709561957F4F8F4F28
:100890009F4FF0683F2E2AE030E0A3010E947505CB
:1008A000882E861845C0853731F4232D2F7EB22E31
:1008B0002AE030E025C0932D997FB92E8F36C1F004
:1008C00018F4883579F0B5C0803719F0883721F0F1
:1008D000B0C0E92FE061BE2EB4FE0DC0FB2DF46068
:1008E000BF2E09C034FE0AC0292F2660B22E06C0D2
:1008F00028E030E005C020E130E002C020E132E035
:10090000F801B7FE07C060817181828193810C5F1D
:100910001F4F06C06081718180E090E00E5F1F4F25
:10092000A3010E947505882E8618FB2DFF773F2EA8
:1009300036FE0DC0232D2E7FA22E891458F434FECE
:100940000BC032FC09C0832D8E7EA82E05C0B82CAA
:10095000A32C03C0B82C01C0B92CA4FE0FC0FE010B
:10096000E80DF11D8081803321F49A2D997EA92E06
:1009700009C0A2FE06C0B394B39404C08A2D867841
:1009800009F0B394A3FC11C0A0FE06C0B21488F411
:10099000280C922C9B180EC0B21460F4B60180E2B1
:1009A00090E00E943905B394F7CFB21418F42B18D5
:1009B00002C0982C212CA4FE10C0B60180E390E068
:1009C0000E943905A2FE17C0A1FC03C088E790E091
:1009D00002C088E590E0B6010CC08A2D867859F0F7
:1009E000A1FE02C08BE201C080E2A7FC8DE2B6014D
:1009F00090E00E943905891438F4B60180E390E054
:100A00000E9439059A94F7CF8A94F301E80DF11DFD
:100A10008081B60190E00E9439058110F5CF222037
:100A200009F442CEB60180E290E00E9439052A9492
:100A3000F6CFF6018681978102C08FEF9FEF2B964C
:100A4000E2E10C94EF05FC0105906150704001104B
:100A5000D8F7809590958E0F9F1F0895FC016150E7
:100A6000704001900110D8F7809590958E0F9F1FD0
:100A700008950F931F93CF93DF93FB01238121FDF3
:100A800003C08FEF9FEF2CC022FF16C04681578115
:100A9000248135814217530744F4A081B1819D011F
:100AA0002F5F3F4F318320838C93268137812F5FC7
:100AB0003F4F3783268314C08B01EC01FB01008478
:100AC000F185E02D0995892BE1F6D80116968D91D7
:100AD0009C911797019617969C938E931697CE012B
:100AE000DF91CF911F910F910895FA01AA27283025
:100AF00051F1203181F1E8946F936E7F6E5F7F4FEB
:100B00008F4F9F4FAF4FB1E03ED0B4E03CD0670F66
:100B1000781F891F9A1FA11D680F791F8A1F911DB9
:100B2000A11D6A0F711D811D911DA11D20D009F409
:100B300068943F912AE0269F11243019305D31934B
:100B4000DEF6CF010895462F4770405D4193B3E034
:100B50000FD0C9F7F6CF462F4F70405D4A3318F0DB
:100B6000495D31FD4052419302D0A9F7EACFB4E08C
:100B7000A6959795879577956795BA95C9F7009744
:100B80006105710508959B01AC010A2E06945795E5
:100B9000479537952795BA95C9F7620F731F841F3C
:100BA000951FA01D08952F923F924F925F926F92D2
:100BB0007F928F929F92AF92BF92CF92DF92EF92ED
:100BC000FF920F931F93CF93DF93CDB7DEB7CA1B6E
:100BD000DB0B0FB6F894DEBF0FBECDBF09942A8899
:100BE000398848885F846E847D848C849B84AA8441
:100BF000B984C884DF80EE80FD800C811B81AA81CE
:100C0000B981CE0FD11D0FB6F894DEBF0FBECDBF98
:080C1000ED010895F894FFCFF7
:100C1800000000020000000095000000000056617E
:0C0C28006C657572203A2025640A0000FB
:00000001FF
